:100000000C94B3000C94D4000C94D4000C94D40041
:100010000C94D4000C94BA030C9495030C94D40063
:100020000C94D4000C94D4000C94D4000C94D40000
:100030000C94D4000C94D4000C94D4000C94D400F0
:100040000C94D4000C94D4000C94D4000C94D400E0
:100050000C94D4000C94D4000C94D4000C94D400D0
:100060000C94D4000C94D4000C94D4000C94D400C0
:100070000C94D4000C94D4000C94D4000C94D400B0
:100080000C94D4000C94D4000C94D4000C94D400A0
:100090000C94D4000C94D4000C94D4000C94D40090
:1000A0000C94D4000C94D4000C94D4000C94D40080
:1000B0000C94D4000C94D4000C94D4000C94D40070
:1000C0000C94D4000C94D4000C94D4000C94D40060
:1000D0000C94D4000C94D4000C94D4000C94D40050
:1000E0000C94D40007634236B79BD8A71A396856D8
:1000F00018AEBAAB558C1D3CB7CC5763BD6DEDFD4A
:10010000753EF6177231BF000000803F0800000006
:10011000BE922449123EABAAAA2ABECDCCCC4C3EFC
:1001200000000080BEABAAAAAA3E00000000BF00EB
:100130000000803F0000000000084178D3BB4387E7
:10014000D1133D190E3CC3BD4282AD2B3E68EC82FB
:1001500076BED98FE1A93E4C80EFFFBE01C4FF7F80
:100160003F000000000011241FBECFEFD1E2DEBF30
:10017000CDBF00E00CBF12E0A0E0B2E0E6EEFDE390
:1001800000E00BBF02C007900D92A430B107D9F771
:1001900012E0A4E0B2E001C01D92A037B107E1F780
:1001A0000E947D1B0C94F11E0C94000086E69EE0DC
:1001B0000197F1F700004098419880E388B9429A8E
:1001C000EFEFF7E43197F1F700C000004298E6E660
:1001D000FEE03197F1F700004098419888B9429AC3
:1001E000EFEFF7E43197F1F700C000004298E6E640
:1001F000FEE03197F1F700004098419888B9429AA3
:100200008FEF97E40197F1F700C000004298E6E60F
:10021000FEE03197F1F700004098419880E288B9FC
:10022000429A8FEF97E40197F1F700C000004298DF
:10023000089598B19F7098B998B1282F207F922B7C
:1002400098B940984198429AEFEFF7E43197F1F767
:1002500000C00000429898B19F7098B998B18295FB
:10026000807F892B88B940984198429A8FEF97E414
:100270000197F1F700C00000429808950E94D6004F
:1002800086E69EE00197F1F7000088E20E941901DE
:1002900081E00E94190186E00E9419018EE00E940F
:1002A000190180E80E941901089598B19F7098B9CA
:1002B00098B1282F207F922B98B9409A4198429A62
:1002C000EFEFF7E43197F1F700C00000429898B1E2
:1002D0009F7098B998B18295807F892B88B9409A90
:1002E0004198429A8FEF97E40197F1F700C0000020
:1002F0004298089580E80E9419010895CF93DF93F2
:10030000EC018881882331F021960E945501899162
:100310008823D9F7DF91CF910895823079F0833027
:1003200018F48130C9F405C0833069F08430A1F439
:100330000FC0862F81580E9419010895862F81547D
:100340000E9419010895862F8D560E941901089563
:10035000862F8D520E94190108950F931F93CF93FA
:10036000DF938A01E901882311F0662319F40E94C2
:100370007A0102C00E948D01C530D10571F4C80117
:1003800060E177E20E94DD1ECB01C096909361028E
:10039000809360020E94550103C0C430D105B9F4B6
:1003A000C80168EE73E00E94DD1ECB017093640209
:1003B000609363026AE070E00E94DD1EC096909335
:1003C0006F0280936E020E94550181E001C080E0BF
:1003D000C330D10511F08130B1F4C80164E670E09A
:1003E0000E94DD1ECB0170936402609363026AE099
:1003F00070E00E94DD1EC09690936B0280936A02AB
:100400000E94550181E0C230D10511F08130B1F474
:100410002AE030E0C801B9010E94DD1ECB017093D3
:10042000640260936302B9010E94DD1EC09690933E
:100430006802809367020E94550181E0C130D105B6
:1004400011F0813061F4C8016AE070E00E94DD1EA5
:10045000C09690936D0280936C020E945501C63045
:10046000D1051CF085E40E945501DF91CF911F91C9
:100470000F910895F901009751F0209102023091F7
:100480000302820F931F909303028093020261156F
:10049000710551F08091020290910302861B970B27
:1004A00090930302809302024115510551F080910F
:1004B000000290910102841B950B9093010280939E
:1004C0000002309751F08091000290910102E80FF4
:1004D000F91FF0930102E09300020895259A2D9AE6
:1004E0000895269A2E9A089581B18F6081B982B1BC
:1004F000807F82B9EAE0F1E0808188618083EBE06F
:10050000F1E0808188618083089510BA11BA109259
:1005100007011092080108958093280160932A0131
:100520000895E1E2F1E010828FEF8093250191E0E0
:1005300090932401109229018093280110922B019D
:1005400080932A0110922D0180932C0189EA8093D7
:1005500020018BE080830895E1E8F0E010828CEFC9
:100560008093850081E08093840093E090938900DC
:100570008FEF8093880090938B0080938A009093F4
:100580008D0080938C0090938700809386008BEA87
:1005900080938000109282008CE08083089586B161
:1005A000886088B9089586B1877F88B908950F93C8
:1005B0001F93682F70E080E090E00E94871C2FEE70
:1005C00039EC43E95FE30E94781DB62FA72F382F3F
:1005D000292F60E070E080E89FE3422F0B2F1A2F55
:1005E000232F342FA90198010E94EE1B2AE939EF2D
:1005F0004EE255E40E94151D20E030E040E251E457
:100600000E94151D0E94561C882777FD8095982F03
:100610000E94891C0E94561C862F972F23E081324E
:10062000920710F080E293E01F910F910895EAE79E
:10063000F0E0108210927B0080E280937C0080E8E2
:1006400080BF86E880830895883018F098E0909302
:100650007B008770806280937C00EAE7F0E0808115
:1006600080648083808184FFFDCF80917900EAE7F8
:10067000F0E090819061908310927B000895CF9379
:10068000DF93D82FC62F842F0E942403482F8093F6
:1006900066028D2F6C2F50E023E030E00E94AD0108
:1006A000DF91CF9108956C98749A08956D98759A1A
:1006B00008953B9A4398089587B1876F87B988B1A9
:1006C000807888B90895E1E0F1E080818C608083D2
:1006D000E2E0F1E08081837F80839A9AA298089576
:1006E0000E9459030E945C030E9474020E945303FB
:1006F0000E9456030E9485020E946E020E947102AF
:100700000E9463030895F894EAE6F0E08081826035
:100710008083EC9A78940895F894EAE6F0E080817A
:1007200088608083ED9A789408951F920F920FB697
:100730000F9211248F939F93AF93BF938091520296
:1007400090915302A0915402B09155020196A11DBF
:10075000B11D8093520290935302A0935402B09320
:100760005502BF91AF919F918F910F900FBE0F9047
:100770001F9018951F920F920FB60F9211248F930E
:100780009F93AF93BF938091560290915702A0918F
:100790005802B09159020196A11DB11D80935602D5
:1007A00090935702A0935802B0935902BF91AF9112
:1007B0009F918F910F900FBE0F901F90189592B13F
:1007C000907F8F70982B92B90895F8940E947003CF
:1007D0000E9491020E94AC020E9417030E948303B0
:1007E0000E948C0378940895A2980895A29A08957F
:1007F000E2E0F1E080818B7F80830895E2E0F1E028
:100800008081846080830895E2E0F1E08081877FC9
:1008100080830895E2E0F1E080818860808308951C
:10082000E2E0F1E08081837F8083A29808951092B6
:100830008900682F70E080E090E00E94871C2BE721
:1008400034E14EEE5FE30E94EE1B20E030E04CE02E
:1008500052E40E948A1B0E945B1C609388000895EA
:1008600010928B00682F70E080E090E00E94871C5F
:100870002BE734E14EEE5FE30E94EE1B20E030E018
:100880004CE052E40E948A1B0E945B1C60938A0029
:10089000089583E0809389008FEF80938800089506
:1008A00083E080938B008FEF80938A00089586E029
:1008B0000E94DF03089589E00E94DF03089585E028
:1008C0000E94DF0308958AE00E94DF03089580E01C
:1008D0000E94DF030895BC0180E090E00E94871C25
:1008E00025EE30ED4AEA50E40E94EE1B0E945B1CAC
:1008F000462F572F682F792F1092520210925302D1
:10090000109254021092550280915202909153021B
:10091000A0915402B0915502481759076A077B0706
:1009200098F70E94670408950F931F93CF93BC011B
:1009300080E090E00E94871C28E431EE42E850E419
:100940000E94EE1B0E945B1CDC01CB01A0E0B0E02A
:1009500010925202109253021092540210925502B9
:100960001092560210925702109258021092590299
:10097000F1E0C0E040915202509153026091540264
:100980007091550200915602109157022091580221
:1009900030915902EF2F481759076A077B0708F46F
:1009A000EC2FEE2349F44F2F081719072A073B07AE
:1009B00008F44C2F4423F1F20E946704CF911F9159
:1009C0000F910895CF93DF93EC010E9457048DECB3
:1009D00068EC0E948C02CE010E946B04CE0168EC90
:1009E00070E00E94DD1ECB0160E070E040E050E06E
:1009F00020E030E00E943A02DF91CF910895CF933A
:100A0000DF93EC010E945B04CE010E946B04CE01D7
:100A100068EC70E00E94DD1E80E090E040E050E075
:100A200020E030E00E943A02DF91CF910895CF9309
:100A3000DF93EC010E945F048DEC68EC0E948C0255
:100A4000CE010E949404DF91CF910895CF93DF935C
:100A5000EC010E9463048DEC68EC0E948C02CE01D4
:100A60000E949404DF91CF910895CF93C82F0E94E4
:100A7000240380936902809169020E94D702209129
:100A80000202309103022F5FCC3091F5982F9759D5
:100A9000973298F4822F90E0880F991FFC01EE0F97
:100AA000FF1FEE0FFF1F8E0F9F1FFC01E85FFD4F22
:100AB00081E090E0938382834DC0895C873208F0A7
:100AC00049C0809106029091070201969093070217
:100AD000809306020E94CF028FEF9FE7A6E181502C
:100AE0009040A040E1F700C000000E94D30232C055
:100AF000CA3081F5982F97599732B8F48091060241
:100B000090910702019690930702809306020E943B
:100B1000CF028FEF9FE7A6E181509040A040E1F720
:100B200000C000000E94D30215C0895C873290F497
:100B3000822F90E0880F991FFC01EE0FFF1FEE0F30
:100B4000FF1F8E0F9F1FFC01E85FFD4F81E090E0CB
:100B500097838683CF9108958AE00E9435058CE0C3
:100B60000E9435050895CF93DF93D82FC0E083E02E
:100B70000E9424038093500282E00E942403809309
:100B80004F0281E00E94240380934E020E9457048A
:100B900081EE66EE0E948C0280914F028D3020F42F
:100BA00090914E029D3078F1909150029D3030F43A
:100BB0008D3048F180914E028D3028F180E060E068
:100BC0000E948C020E9457048FEF9FEFACE281508D
:100BD0009040A040E1F700C00000CF5F81EE66EEDC
:100BE0000E948C028EE190E00E94E2040E94670461
:100BF0008FEF9FE7A6E181509040A040E1F700C051
:100C00000000DC1779F180914F028C3040F00E9497
:100C1000D3020E94570481EE66EE0E948C028091FE
:100C200050028C3040F00E94D3020E94570480E5AD
:100C30006EEB0E948C0280914E028C3040F00E943C
:100C4000D3020E9457048EEB60E50E948C028D2F28
:100C500090E060E070E040E050E020E030E00E9492
:100C60003A0285CFDF91CF9108958CE00E94240352
:100C700080936902809169020E94D702982F995C43
:100C80009732A0F580910202909103020196209183
:100C90000002309101022F5F3F4FFC01EE0FFF1F5A
:100CA000EE0FFF1F8E0F9F1F820F931FFC01EE0F91
:100CB000FF1FE85FFD4F82E090E0918380830E94F8
:100CC000CF028FEF9FE7A6E181509040A040E1F76F
:100CD00000C000000E94D30280910402909105029E
:100CE00001969093050280930402089587598732F4
:100CF000E8F4809102029091030201962091000293
:100D0000309101022F5F3F4FFC01EE0FFF1FEE0FEE
:100D1000FF1F8E0F9F1F820F931FFC01EE0FFF1FFF
:100D2000E85FFD4F81E090E09183808308950F9309
:100D30001F93CF93DF93D82FC0E0082F10E083E0FC
:100D40000E9424038093500282E00E942403809337
:100D50004F0281E00E94240380934E0290914F0243
:100D60009D3018F48D3008F451C0209150022D3080
:100D700030F49D3008F44AC08D3008F447C080E05C
:100D800060E00E948C020E9457048FEF9FEFACE25C
:100D900081509040A040E1F700C00000CF5F87ED98
:100DA00062ED0E948C028EE190E00E94E2040E94BB
:100DB00067048FEF9FE7A6E181509040A040E1F7E4
:100DC00000C000008C2F90E09C012F5F3F4F021766
:100DD000130719F40E94350619C09C012E5F3F4F7E
:100DE0000217130719F40E94350610C0039608175E
:100DF000190719F40E94350609C0DC1739F40E945E
:100E00003506DF91CF911F910F91089580914F0288
:100E10008C3040F00E94D3020E94570487ED62EDAF
:100E20000E948C02809150028C3040F00E94D302CC
:100E30000E94570480E56EEB0E948C0280914E0266
:100E40008C3008F47CCF0E94D3020E9457048EEBB2
:100E500060E50E948C0273CF87ED62ED0E948C02E8
:100E60008EE190E00E94E2040E9467048FEF9FE70A
:100E7000A6E181509040A040E1F700C0000087ED5E
:100E800062ED0E948C028AE590E00E9426050E9495
:100E900067048FEF9FE7A6E181509040A040E1F703
:100EA00000C00000089587ED62ED0E948C028EE183
:100EB00090E00E94E2040E9467048FEF9FE7A6E1A2
:100EC00081509040A040E1F700C0000087ED62ED46
:100ED0000E948C028AE590E00E9417050E94670438
:100EE0008FEF9FE7A6E181509040A040E1F700C05E
:100EF000000008954091020250910302842F242F94
:100F000030E0220F331FF901EE0FFF1FEE0FFF1F1E
:100F10002E0F3F1FF901E85FFD4F24813581211518
:100F20003105C9F0242F30E0C901880F991FFC0159
:100F3000EE0FFF1FEE0FFF1F8E0F9F1FFC01E85FDC
:100F4000FD4F848195818230910509F437C10E945B
:100F5000530782E00895242F30E0220F331FF90158
:100F6000EE0FFF1FEE0FFF1F2E0F3F1FF901E85F6F
:100F7000FD4F2681378121153105C9F0242F30E03E
:100F8000C901880F991FFC01EE0FFF1FEE0FFF1F15
:100F90008E0F9F1FFC01E85FFD4F86819781823095
:100FA000910509F40DC10E94530783E00895242F91
:100FB00030E0A901440F551FFA01EE0FFF1FEE0F9D
:100FC000FF1F4E0F5F1FFA01E85FFD4F208531853F
:100FD00021153105C9F0282F30E0C901880F991F6C
:100FE000FC01EE0FFF1FEE0FFF1F8E0F9F1FFC0176
:100FF000E85FFD4F808591858230910509F4E2C05C
:101000000E94530784E008958091020290910302A8
:10101000009709F074C08DE290E00E9417058CE003
:101020000E94240380936902809169020E94D70282
:10103000982F97599D31E8F4809102029091030214
:10104000FC01EE0FFF1F880F991F880F991F880F53
:10105000991FE80FF91FE85FFD4F81E090E095834D
:1010600084838DE290E00E9426050E94530782E06F
:101070000895982F99579831F8F480910202909131
:101080000302FC01EE0FFF1F880F991F880F991FA5
:10109000880F991FE80FF91FE85FFD4F82E090E08D
:1010A0009583848380910402909105020196909328
:1010B00005028093040288C08D5D8D3108F084C0E4
:1010C0008091020290910302FC01EE0FFF1F880F36
:1010D000991F880F991F880F991FE80FF91FE85F64
:1010E000FD4F82E090E09783868380910402909187
:1010F00005020196909305028093040265C08DE27B
:1011000090E00E9417058AE00E9424038093690200
:10111000809169020E94D702982F97599D31D8F487
:101120008091020290910302FC01EE0FFF1F880FD5
:10113000991F880F991F880F991FE80FF91FE85F03
:10114000FD4F81E090E0958384838DE290E00E94E2
:10115000170582E00895982F99579831B0F480913F
:10116000020290910302FC01EE0FFF1F880F991FEE
:10117000880F991F880F991FE80FF91FE85FFD4F2F
:1011800082E090E09583848325C08D5D8D3110F5DC
:101190008091020290910302FC01EE0FFF1F880F65
:1011A000991F880F991F880F991FE80FF91FE85F93
:1011B000FD4F82E090E0978386830CC080E0089525
:1011C00080E0089580E008958DE290E00E94260579
:1011D00080E008958DE290E00E94260580E0089569
:1011E000CF93DF93EC0180FF1BC080E00E941704C7
:1011F0008FEF9FE7A6E181509040A040E1F700C04B
:10120000000084EB0E9417048FEF9FEFACE2815047
:101210009040A040E1F700C000000E9449041AC0BD
:1012200084EB0E9417048FEF9FE7A6E18150904066
:10123000A040E1F700C0000080E00E9417048FEF9B
:101240009FEFACE281509040A040E1F700C0000069
:101250000E944904CE010196DF91CF9108951F931A
:10126000CF93DF93EC0180FF1BC010E0812F0E9421
:10127000300489E999E5A1E081509040A040E1F770
:1012800000001F5F1A3591F78FEF9FE7A6E18150AD
:101290009040A040E1F700C000000E94500419C037
:1012A0001AE5812F0E94300489E999E5A1E0815077
:1012B0009040A040E1F70000115099F78FEF9FE7B1
:1012C000A6E181509040A040E1F700C000000E94DC
:1012D0005004CE010196DF91CF911F910895CF93D5
:1012E000DF93EC0180915A0290915B020E942F09DA
:1012F00090935B0280935A028FEF9FE7A6E18150A3
:101300009040A040E1F700C0000080915C02909105
:101310005D020E94F00890935D0280935C028FEF63
:101320009FE7A6E181509040A040E1F700C0000097
:1013300080915A0290915B020E942F0990935B0268
:1013400080935A028FEF9FE7A6E181509040A04022
:10135000E1F700C00000209751F4809106029091BF
:101360000702019690930702809306020CC0C130D9
:10137000D10549F480910402909105020196909361
:10138000050280930402DF91CF910895CF93DF93FC
:10139000C82FD92F6115710529F48AE590E00E94C4
:1013A000260502C00E942C078FEF9FE7A6E181501F
:1013B0009040A040E1F700C000008C2F0E94B305D0
:1013C0008FEF9FE7A6E181509040A040E1F700C079
:1013D000000080915102823051F480E090E06C2F47
:1013E0007D2F4C2F5D2F20E030E00E943A02DF91EC
:1013F000CF910895CF93DF93C82FD92F6115710531
:1014000029F48AE590E00E94170502C00E94530764
:101410008FEF9FE7A6E181509040A040E1F700C028
:1014200000008C2F0E94B3058FEF9FE7A6E181504B
:101430009040A040E1F700C000008091510282304E
:1014400051F480E090E06C2F7D2F40E050E02C2F95
:101450003D2F0E943A02DF91CF910895CF93DF9301
:1014600081E090E061E070E00E94C6098FEF9FE7A5
:10147000A6E181509040A040E1F700C000008AE062
:101480000E94240380936902809169020E94D7021E
:101490009C01275930402732310588F481E00E94B1
:1014A000B3050E94530780E090E00E946F098AE52F
:1014B00090E00E94170583E00E94B3052AC0895C72
:1014C000904087329105F0F48091060290910702D6
:1014D000019690930702809306020E94CF028FEF3D
:1014E0009FE7A6E181509040A040E1F700C00000D6
:1014F0000E94D30284EB90E00E94260582E00E94C5
:10150000B30507C084EB90E00E94260582E00E94AC
:10151000B3058FEF9FE7A6E181509040A040E1F72F
:1015200000C000008CE00E94240380936902809137
:1015300069020E94D702EC0182E064E04AE00E9466
:101540003F03CE01875990408732910500F5809185
:10155000060290910702019690930702809306027B
:101560000E94CF028FEF9FE7A6E181509040A040FC
:10157000E1F700C000000E94D30284EB90E00E94DB
:10158000260581E00E94B3050E94530721C0C95C73
:10159000D040C732D10598F481E00E94B3050E9483
:1015A0002C0780E090E00E946F098AE590E00E949D
:1015B000260581E00E94B3050E94530709C084EB11
:1015C00090E00E94260581E00E94B3050E94530727
:1015D00082E090E090930102809300021092030257
:1015E00010920202DF91CF9108950E94040410929C
:1015F000520210925302109254021092550281E04E
:101600000E94B305EE24FF24CC24DD24AA24BB24AD
:10161000A39484E00E942403082F88E00E942403FE
:10162000C82FD0E086E00E942403182F0E945704A0
:1016300081EE61EE0E948C02133840F5E114F10452
:1016400029F50E94570480E060E00E948C028FEF31
:101650009FE7A6E181509040A040E1F700C0000064
:1016600081EE61EE0E948C028AE590E00E941705EF
:101670000E9467048FEF9FE7A6E181509040A04051
:10168000E1F700C0000075016501C3CFCA39D1057B
:10169000E0F191E0C916D104C1F5A1E0EA16F10428
:1016A000A1F586E696E2A7E281509040A040E1F7DE
:1016B0000E94570480E060E00E948C028FEF9FE759
:1016C000A6E181509040A040E1F700C0000081EE0B
:1016D00061EE0E948C028AE590E00E94260586E970
:1016E00090E00E94E2048CED6CED0E948C028091EF
:1016F000520290915302A0915402B0915502893543
:101700009105A105B10538F53EC0CF38D10578F473
:1017100091E0E916F10459F4A1E0CA16D10439F4B4
:101720000E94570486E96CED0E948C0272CF0F383C
:1017300008F06FCFB1E0EB16F10409F06ACF81E059
:10174000C816D10409F065CF0E9457048CED66E9F4
:101750000E948C025ECF8091520290915302A09120
:101760005402B091550281369105A105B10558F496
:10177000109201021092000285E090E09093030223
:101780008093020294C08091520290915302A091E2
:101790005402B09155028E379105A105B105C0F0F4
:1017A0008091520290915302A0915402B09155023F
:1017B0008F389105A105B10558F4109201021092DD
:1017C000000284E090E090930302809302026FC0D5
:1017D0008091520290915302A0915402B09155020F
:1017E000833A9105A105B105C0F080915202909114
:1017F0005302A0915402B0915502853B9105A10579
:10180000B10558F4109201021092000283E090E0BA
:1018100090930302809302024AC0809152029091F9
:101820005302A0915402B0915502893C9105A10543
:10183000B105C0F08091520290915302A0915402E0
:10184000B09155028A3D9105A105B10558F4109259
:1018500001021092000282E090E0909303028093D4
:10186000020225C08091520290915302A09154022D
:10187000B09155028E3E9105A105B105C0F0809151
:10188000520290915302A0915402B09155028F3FA1
:101890009105A105B10509F050F4109201021092D2
:1018A000000281E090E090930302809302020E9484
:1018B000CF028FEF9FEFACE281509040A040E1F764
:1018C00000C000000E94D30281E00E94B305809115
:1018D0000202909103020197909303028093020207
:1018E0000E945307809102029091030281500E944E
:1018F000B305109203021092020282E0809351021B
:1019000080E090E028E032E0FC01EE0FFF1FE20FE4
:10191000F31F118210820196F7CFBC018091020261
:10192000909103028530910581F58091400290915C
:101930004102009771F4209100023091010285E08C
:1019400090E0821B930B0E94FA0982E0809351027F
:1019500035C080914002909141028130910571F52E
:1019600081E00E94B30582E090E061E070E00E94B7
:10197000FA0981E090E061E070E00E94FA090E94BB
:101980002C0782E08093510219C08091020290914D
:1019900003028630910591F42091000230910102FA
:1019A00084E090E0821B930B0E94FA090E94530787
:1019B00081E00E94B30582E0809351020E94CF0231
:1019C0008FEF9FEFACE281509040A040E1F700C064
:1019D00000000E94D3020895209102023091030278
:1019E00086E0821B0E94B305209100023091010223
:1019F00084E090E0821B930B61E070E00E94FA09A2
:101A000083E0809351020E94CF028FEF9FEFA0EE00
:101A100081509040A040E1F700C000000E94D30236
:101A20000895CF92DF92FF920F931F93CF93DF938E
:101A300002E012E0C0E0D2E00F2EF5E0FF2EF02D24
:101A40000F2EF8E0CF2EF2E0DF2EF02D83E00E9483
:101A500024038093500282E00E94240380934F026B
:101A600081E00E94240380934E02209151022223A0
:101A7000E9F4D8018D919C9111970097B9F481E018
:101A80000E94B305F801118210820E94AC058FEF0D
:101A90009FE7A6E181509040A040E1F700C0000020
:101AA0000E942E0A81E08093510204C0213011F07F
:101AB0000C94061A809106029091070287309105D6
:101AC00010F00C94EA19888199818230910509F00F
:101AD000BDCFD8018D919C9111978D919C911197BB
:101AE0008630910508F0B2CF8D919C911197AC0191
:101AF0004F5F5F4FCA01880F991F9A01220F331F52
:101B0000220F331F220F331F820F931FF601E80F9E
:101B1000F91F80819181009709F035C5CA01880FAE
:101B2000991F9A01220F331F220F331F220F331FD9
:101B3000820F931FF601E80FF91F828193810097AE
:101B400009F00FC2CA01880F991F9A01220F331F93
:101B5000220F331F220F331F820F931FF601E80F4E
:101B6000F91F86819781009709F098C0FA01EE0F5E
:101B7000FF1FC9018E0F9F1FF601E80FF91F808517
:101B80009185009759F58D919C911197853091051C
:101B900029F481E090E00E948D0C58CF81E00E94F2
:101BA000B3058FEF9FE7A6E181509040A040E1F799
:101BB00000C00000D8018D919C911197019611965B
:101BC0009C938E930E94AC058FEF9FE7A6E1815016
:101BD0009040A040E1F700C0000038CF81E00E94B3
:101BE000B3058FEF9FE7A6E181509040A040E1F759
:101BF00000C00000D8018D919C911197019611961B
:101C00009C938E930E94AC058FEF9FE7A6E18150D5
:101C10009040A040E1F700C0000081E090E061E06A
:101C200070E00E94FA098FEF9FE7A6E18150904093
:101C3000A040E1F700C0000080E090E00E946F0942
:101C40008FEF9FE7A6E181509040A040E1F700C0F0
:101C500000008AE590E00E94260581E090E061E0C6
:101C600070E00E94C6090E9453078FEF9FE7A6E12C
:101C700081509040A040E1F700C00000D8018D9154
:101C80009C9111978630910509F0E0CE81E00E9489
:101C9000B30581E090E00E948D0CD8CEFA01EE0FE2
:101CA000FF1FCA01880F991F880F991F880F991F5E
:101CB0008E0F9F1FF601E80FF91F80859185009711
:101CC00009F06EC0F801808191818530910519F588
:101CD00081E090E061E070E00E94FA090E942C0728
:101CE0008FEF9FE7A6E181509040A040E1F700C050
:101CF000000080E090E00E946F098FEF9FE7A6E16F
:101D000081509040A040E1F700C0000080E090E0EA
:101D10000E948D0C9BCE81E00E94B3058FEF9FE760
:101D2000A6E181509040A040E1F700C00000D8013A
:101D30008D919C911197019611969C938E930E9480
:101D4000AC058FEF9FE7A6E181509040A040E1F7FE
:101D500000C000000E9453078FEF9FE7A6E181506B
:101D60009040A040E1F700C0000080E090E00E94B9
:101D70006F098FEF9FE7A6E181509040A040E1F707
:101D800000C000008AE590E00E9426058FEF9FE7E3
:101D9000A6E181509040A040E1F700C0000056CE7F
:101DA000D8018D919C9111978530910509F053C010
:101DB00081E090E061E070E00E94FA098FEF9FE718
:101DC000A6E181509040A040E1F700C000000E94D1
:101DD0002C078FEF9FE7A6E181509040A040E1F7EC
:101DE00000C0000080E090E00E946F098FEF9FE745
:101DF000A6E181509040A040E1F700C0000081E0E2
:101E000090E060E070E00E94FA098FEF9FE7A6E1A2
:101E100081509040A040E1F700C000000E942C07D4
:101E20008FEF9FE7A6E181509040A040E1F700C00E
:101E3000000080E090E00E946F098FEF9FE7A6E12D
:101E400081509040A040E1F700C0000080E090E0A9
:101E50000E948D0CFBCD82E090E061E070E00E947A
:101E6000FA098FEF9FE7A6E181509040A040E1F78B
:101E700000C000000E942C078FEF9FE7A6E1815071
:101E80009040A040E1F700C0000080E090E00E9498
:101E90006F098FEF9FE7A6E181509040A040E1F7E6
:101EA00000C0000082E090E060E070E00E94C6099F
:101EB0008FEF9FE7A6E181509040A040E1F700C07E
:101EC00000000E9453078FEF9FE7A6E181509040EA
:101ED000A040E1F700C0000081E00E94B3058FEF51
:101EE0009FE7A6E181509040A040E1F700C00000CC
:101EF000D8018D919C911197019611969C938E9388
:101F00000E94AC058FEF9FE7A6E181509040A04072
:101F1000E1F700C000000E9453078FEF9FE7A6E1A2
:101F200081509040A040E1F700C0000080E090E0C8
:101F30000E946F098FEF9FE7A6E181509040A0407B
:101F4000E1F700C000008AE590E00E9426058FEFCF
:101F50009FE7A6E181509040A040E1F700C000005B
:101F600075CDCA01880F991F9A01220F331F220FC6
:101F7000331F220F331F820F931FF601E80FF91F43
:101F800086819781009709F03FC1FA01EE0FFF1F8C
:101F9000C9018E0F9F1FF601E80FF91F80859185FB
:101FA000009709F082C0D8018D919C9111978530DE
:101FB0009105B1F581E00E94B3058FEF9FE7A6E19F
:101FC00081509040A040E1F700C000000E942C0723
:101FD0008FEF9FE7A6E181509040A040E1F700C05D
:101FE000000080E090E00E946F098FEF9FE7A6E17C
:101FF00081509040A040E1F700C000008AE590E0E9
:102000000E9417058FEF9FE7A6E181509040A04006
:10201000E1F700C0000081E090E00E948D0C16CD39
:1020200081E00E94B3058FEF9FE7A6E181509040C9
:10203000A040E1F700C000000E942C078FEF9FE74F
:10204000A6E181509040A040E1F700C00000D80117
:102050008D919C911197019611969C938E930E945D
:10206000AC058FEF9FE7A6E181509040A040E1F7DB
:1020700000C0000080E090E00E946F098FEF9FE7B2
:10208000A6E181509040A040E1F700C000008AE541
:1020900090E00E9417058FEF9FE7A6E181509040E6
:1020A000A040E1F700C00000D1CCD8018D919C91F7
:1020B000119785309105B1F581E090E061E070E025
:1020C0000E94FA090E942C0780E090E00E946F09AC
:1020D0008FEF9FE7A6E181509040A040E1F700C05C
:1020E000000083E090E060E070E00E94FA098FEF6A
:1020F0009FE7A6E181509040A040E1F700C00000BA
:1021000080E090E00E946F098FEF9FE7A6E1815089
:102110009040A040E1F700C0000080E090E00E9405
:102120008D0C94CC81E00E94B3058FEF9FE7A6E170
:1021300081509040A040E1F700C00000D8018D918F
:102140009C911197019611969C938E930E94AC05D9
:102150008FEF9FE7A6E181509040A040E1F700C0DB
:1021600000000E942C078FEF9FE7A6E1815090406E
:10217000A040E1F700C0000080E090E00E946F09FD
:102180008FEF9FE7A6E181509040A040E1F700C0AB
:1021900000000E9453078FEF9FE7A6E18150904017
:1021A000A040E1F700C0000081E090E061E070E055
:1021B0000E94FA098FEF9FE7A6E181509040A0406E
:1021C000E1F700C0000080E090E00E946F098FEF0F
:1021D0009FE7A6E181509040A040E1F700C00000D9
:1021E0000E942C0781E090E061E070E00E94C60947
:1021F0000E9453078FEF9FE7A6E181509040A040D7
:10220000E1F700C0000022CCFA01EE0FFF1FCA0167
:10221000880F991F880F991F880F991F8E0F9F1F76
:10222000F601E80FF91F80859185009709F098C0A5
:10223000D8018D919C9111978530910579F581E0B8
:1022400090E061E070E00E94C6090E94530780E0C0
:1022500090E00E946F098FEF9FE7A6E181509040C8
:10226000A040E1F700C0000082E090E060E070E094
:102270000E94FA090E942C0780E090E00E946F09FA
:102280008FEF9FE7A6E181509040A040E1F700C0AA
:10229000000080E090E00E948D0CD8CB81E00E948D
:1022A000B3058FEF9FE7A6E181509040A040E1F792
:1022B00000C000000E9453078FEF9FE7A6E1815006
:1022C0009040A040E1F700C0000080E090E00E9454
:1022D0006F098FEF9FE7A6E181509040A040E1F7A2
:1022E00000C0000084EB90E00E94260580E090E0B2
:1022F0000E946F098FEF9FE7A6E181509040A040B8
:10230000E1F700C000008AE590E00E9417058FEF1A
:102310009FE7A6E181509040A040E1F700C0000097
:1023200081E00E94B3058FEF9FE7A6E181509040C6
:10233000A040E1F700C00000D8018D919C91119759
:10234000019611969C938E930E94AC058FEF9FE7A8
:10235000A6E181509040A040E1F700C0000076CB9C
:10236000D8018D919C9111978530910509F068C035
:1023700081E090E061E070E00E94C6090E9453078E
:1023800080E090E00E946F098FEF9FE7A6E1815007
:102390009040A040E1F700C0000081E090E060E0E4
:1023A00070E00E94FA098FEF9FE7A6E1815090400C
:1023B000A040E1F700C000000E942C078FEF9FE7CC
:1023C000A6E181509040A040E1F700C0000080E00D
:1023D00090E00E946F098FEF9FE7A6E18150904047
:1023E000A040E1F700C0000083E090E060E070E012
:1023F0000E94FA098FEF9FE7A6E181509040A0402C
:10240000E1F700C000000E942C078FEF9FE7A6E1D4
:1024100081509040A040E1F700C0000080E090E0D3
:102420000E946F098FEF9FE7A6E181509040A04086
:10243000E1F700C0000080E090E00E948D0C06CB28
:1024400082E090E061E070E00E94FA098FEF9FE780
:10245000A6E181509040A040E1F700C000000E943A
:102460002C078FEF9FE7A6E181509040A040E1F755
:1024700000C0000080E090E00E946F098FEF9FE7AE
:10248000A6E181509040A040E1F700C0000082E04A
:1024900090E060E070E00E94C6098FEF9FE7A6E140
:1024A00081509040A040E1F700C000000E94530717
:1024B0008FEF9FE7A6E181509040A040E1F700C078
:1024C000000081E00E94B3058FEF9FE7A6E18150F5
:1024D0009040A040E1F700C000000E9453078FEF3A
:1024E0009FE7A6E181509040A040E1F700C00000C6
:1024F00080E090E00E946F098FEF9FE7A6E1815096
:102500009040A040E1F700C0000084EB90E00E9402
:10251000260580E090E00E946F098FEF9FE7A6E11B
:1025200081509040A040E1F700C000008AE590E0B3
:102530000E9417058FEF9FE7A6E181509040A040D1
:10254000E1F700C0000081E00E94B3058FEF9FE734
:10255000A6E181509040A040E1F700C00000D80102
:102560008D919C911197019611969C938E930E9448
:10257000AC058FEF9FE7A6E181509040A040E1F7C6
:1025800000C0000063CACA01880F991F9A01220F78
:10259000331F220F331F220F331F820F931FF601A9
:1025A000E80FF91F82819381009709F07EC2CA016A
:1025B000880F991F9A01220F331F220F331F220FFA
:1025C000331F820F931FF601E80FF91F8681978151
:1025D000009709F0FAC0FA01EE0FFF1FC9018E0F34
:1025E0009F1FF601E80FF91F80859185009709F07C
:1025F00066C081E00E94B3058FEF9FE7A6E181509E
:102600009040A040E1F700C00000D8018D919C915E
:102610001197019611969C938E930E94AC058FEFB3
:102620009FE7A6E181509040A040E1F700C0000084
:1026300081E090E061E070E00E94C60980E090E0F7
:102640000E946F098FEF9FE7A6E181509040A04064
:10265000E1F700C000008AE590E00E9417058FEFC7
:102660009FE7A6E181509040A040E1F700C0000044
:1026700081E090E061E070E00E94FA098FEF9FE74F
:10268000A6E181509040A040E1F700C000000E9408
:102690002C078FEF9FE7A6E181509040A040E1F723
:1026A00000C00000D8018D919C9111978630910552
:1026B00009F0CCC981E090E00E948D0CC7C981E08F
:1026C0000E94B3058FEF9FE7A6E181509040A040A4
:1026D000E1F700C00000D8018D919C9111970196FF
:1026E00011969C938E930E94AC058FEF9FE7A6E115
:1026F00081509040A040E1F700C0000081E090E0F0
:1027000061E070E00E94C60980E090E00E946F09DD
:102710008FEF9FE7A6E181509040A040E1F700C015
:1027200000008AE590E00E9417058FEF9FE7A6E181
:1027300081509040A040E1F700C0000082E090E0AE
:1027400061E070E00E94FA098FEF9FE7A6E18150F7
:102750009040A040E1F700C0000080E090E00E94BF
:102760006F098FEF9FE7A6E181509040A040E1F70D
:1027700000C000008AE590E00E9426058FEF9FE7E9
:10278000A6E181509040A040E1F700C00000D801D0
:102790008D919C9111978630910529F481E090E00C
:1027A0000E948D0C53C981E090E061E070E00E94CE
:1027B000C6090E9453078FEF9FE7A6E18150904022
:1027C000A040E1F700C0000041C9FA01EE0FFF1F71
:1027D000CA01880F991F880F991F880F991F8E0FA4
:1027E0009F1FF601E80FF91F80859185009709F07A
:1027F00082C081E00E94B3058FEF9FE7A6E1815080
:102800009040A040E1F700C00000D8018D919C915C
:102810001197019611969C938E930E94AC058FEFB1
:102820009FE7A6E181509040A040E1F700C0000082
:1028300081E090E061E070E00E94C6098FEF9FE7C1
:10284000A6E181509040A040E1F700C0000080E088
:1028500090E00E946F098FEF9FE7A6E181509040C2
:10286000A040E1F700C000008AE590E00E94170553
:102870008FEF9FE7A6E181509040A040E1F700C0B4
:10288000000081E090E061E070E00E94FA098FEFC3
:102890009FE7A6E181509040A040E1F700C0000012
:1028A00080E090E00E946F098FEF9FE7A6E18150E2
:1028B0009040A040E1F700C000008AE590E00E944F
:1028C00026058FEF9FE7A6E181509040A040E1F7F9
:1028D00000C00000D8018D919C9111978530910521
:1028E00009F0B4C888EC90E00E94FF0481E090E019
:1028F0000E948D0CABC8F8018081918185309105D3
:1029000049F582E090E061E070E00E94C6090E9413
:10291000530780E090E00E946F0983E090E060E060
:1029200070E00E94FA090E942C0780E090E00E946B
:102930006F0981E090E060E070E00E94FA090E9477
:102940002C0780E090E00E946F0980E090E00E94F8
:102950008D0C7CC882E090E061E070E00E94FA0992
:102960008FEF9FE7A6E181509040A040E1F700C0C3
:1029700000000E942C078FEF9FE7A6E18150904056
:10298000A040E1F700C0000080E090E00E946F09E5
:102990008FEF9FE7A6E181509040A040E1F700C093
:1029A000000082E090E060E070E00E94C6098FEFD6
:1029B0009FE7A6E181509040A040E1F700C00000F1
:1029C0000E9453078FEF9FE7A6E181509040A040FF
:1029D000E1F700C0000081E00E94B3058FEF9FE7A0
:1029E000A6E181509040A040E1F700C00000D8016E
:1029F0008D919C911197019611969C938E930E94B4
:102A0000AC058FEF9FE7A6E181509040A040E1F731
:102A100000C0000081E090E061E070E00E94C60923
:102A200080E090E00E946F098FEF9FE7A6E1815060
:102A30009040A040E1F700C000008AE590E00E94CD
:102A400017058FEF9FE7A6E181509040A040E1F786
:102A500000C0000081E090E061E070E00E94FA09AF
:102A60008FEF9FE7A6E181509040A040E1F700C0C2
:102A7000000080E090E00E946F098FEF9FE7A6E1E1
:102A800081509040A040E1F700C000008AE590E04E
:102A90000E9426058FEF9FE7A6E181509040A0405D
:102AA000E1F700C000000C94260DCA01880F991FA1
:102AB0009A01220F331F220F331F220F331F820F61
:102AC000931FF601E80FF91F86819781009709F09F
:102AD000D1C1FA01EE0FFF1FC9018E0F9F1FF60132
:102AE000E80FF91F80859185009709F0B9C082E051
:102AF00090E061E070E00E94C6098FEF9FE7A6E1D9
:102B000081509040A040E1F700C000000E945307B0
:102B10008FEF9FE7A6E181509040A040E1F700C011
:102B2000000080E090E00E946F098FEF9FE7A6E130
:102B300081509040A040E1F700C00000D8018D9185
:102B40009C9111978530910569F581E090E060E0F6
:102B500070E00E94FA098FEF9FE7A6E18150904054
:102B6000A040E1F700C000000E942C078FEF9FE714
:102B7000A6E181509040A040E1F700C0000080E055
:102B800090E00E946F098FEF9FE7A6E1815090408F
:102B9000A040E1F700C0000080E090E00E948D0CB2
:102BA0000C94260D82E090E060E070E00E94FA094B
:102BB0008FEF9FE7A6E181509040A040E1F700C071
:102BC00000000E942C078FEF9FE7A6E18150904004
:102BD000A040E1F700C0000081E00E94B3058FEF44
:102BE0009FE7A6E181509040A040E1F700C00000BF
:102BF000D8018D919C911197019611969C938E937B
:102C00000E94AC058FEF9FE7A6E181509040A04065
:102C1000E1F700C000000E942C078FEF9FE7A6E1BC
:102C200081509040A040E1F700C0000080E090E0BB
:102C30000E946F098FEF9FE7A6E181509040A0406E
:102C4000E1F700C000000E9453078FEF9FE7A6E165
:102C500081509040A040E1F700C000000C94260D88
:102C600082E090E061E070E00E94C6098FEF9FE78C
:102C7000A6E181509040A040E1F700C000000E9412
:102C800053078FEF9FE7A6E181509040A040E1F706
:102C900000C0000080E090E00E946F098FEF9FE786
:102CA000A6E181509040A040E1F700C00000D801AB
:102CB0008D919C9111978530910509F054C081E068
:102CC00090E060E070E00E94FA098FEF9FE7A6E1D4
:102CD00081509040A040E1F700C000000E942C0706
:102CE0008FEF9FE7A6E181509040A040E1F700C040
:102CF000000080E090E00E946F098FEF9FE7A6E15F
:102D000081509040A040E1F700C0000083E090E0D7
:102D100061E070E00E94FA098FEF9FE7A6E1815021
:102D20009040A040E1F700C000000E942C078FEF08
:102D30009FE7A6E181509040A040E1F700C000006D
:102D400080E090E00E946F098FEF9FE7A6E181503D
:102D50009040A040E1F700C0000080E090E00E94B9
:102D60008D0C0C94260D84E090E060E070E00E94F1
:102D7000FA098FEF9FE7A6E181509040A040E1F76C
:102D800000C000000E942C078FEF9FE7A6E1815052
:102D90009040A040E1F700C0000080E090E00E9479
:102DA0006F098FEF9FE7A6E181509040A040E1F7C7
:102DB00000C0000082E090E060E070E00E94C60980
:102DC0008FEF9FE7A6E181509040A040E1F700C05F
:102DD00000000E9453078FEF9FE7A6E181509040CB
:102DE000A040E1F700C0000081E00E94B3058FEF32
:102DF0009FE7A6E181509040A040E1F700C00000AD
:102E0000D8018D919C911197019611969C938E9368
:102E10000E94AC058FEF9FE7A6E181509040A04053
:102E2000E1F700C000000E942C078FEF9FE7A6E1AA
:102E300081509040A040E1F700C0000080E090E0A9
:102E40000E946F098FEF9FE7A6E181509040A0405C
:102E5000E1F700C000008AE590E00E9417058FEFBF
:102E60009FE7A6E181509040A040E1F700C000003C
:102E70000C94260DFA01EE0FFF1FCA01880F991F4F
:102E8000880F991F880F991F8E0F9F1FF601E80F5B
:102E9000F91F80859185009709F027C1D8018D9190
:102EA0009C9111978530910509F07BC082E090E0FC
:102EB00061E070E00E94C6098FEF9FE7A6E18150B4
:102EC0009040A040E1F700C000000E9453078FEF40
:102ED0009FE7A6E181509040A040E1F700C00000CC
:102EE00080E090E00E946F098FEF9FE7A6E181509C
:102EF0009040A040E1F700C0000081E090E060E079
:102F000070E00E94FA098FEF9FE7A6E181509040A0
:102F1000A040E1F700C000000E942C078FEF9FE760
:102F2000A6E181509040A040E1F700C0000080E0A1
:102F300090E00E946F098FEF9FE7A6E181509040DB
:102F4000A040E1F700C0000082E090E060E070E0A7
:102F50000E94FA098FEF9FE7A6E181509040A040C0
:102F6000E1F700C000000E942C078FEF9FE7A6E169
:102F700081509040A040E1F700C0000080E090E068
:102F80000E946F098FEF9FE7A6E181509040A0401B
:102F9000E1F700C0000080E090E00E948D0C0C94EE
:102FA000260D82E090E061E070E00E94C6098FEF9C
:102FB0009FE7A6E181509040A040E1F700C00000EB
:102FC0000E9453078FEF9FE7A6E181509040A040F9
:102FD000E1F700C0000080E090E00E946F098FEFF1
:102FE0009FE7A6E181509040A040E1F700C00000BB
:102FF00082E090E060E070E00E94FA098FEF9FE7C6
:10300000A6E181509040A040E1F700C000000E947E
:103010002C078FEF9FE7A6E181509040A040E1F799
:1030200000C0000081E00E94B3058FEF9FE7A6E19A
:1030300081509040A040E1F700C000000E9453077B
:103040008FEF9FE7A6E181509040A040E1F700C0DC
:10305000000080E090E00E946F098FEF9FE7A6E1FB
:1030600081509040A040E1F700C0000084EB90E068
:103070000E94260580E090E00E946F098FEF9FE795
:10308000A6E181509040A040E1F700C000008AE531
:1030900090E00E9417058FEF9FE7A6E181509040D6
:1030A000A040E1F700C0000081E00E94B3058FEF6F
:1030B0009FE7A6E181509040A040E1F700C00000EA
:1030C000D8018D919C911197019611969C938E93A6
:1030D0000E94AC058FEF9FE7A6E181509040A04091
:1030E000E1F700C000000C94260DD8018D919C9151
:1030F00011978530910509F0A2C082E090E061E06F
:1031000070E00E94C6098FEF9FE7A6E181509040D2
:10311000A040E1F700C000000E9453078FEF9FE737
:10312000A6E181509040A040E1F700C0000080E09F
:1031300090E00E946F098FEF9FE7A6E181509040D9
:10314000A040E1F700C0000081E090E060E070E0A6
:103150000E94FA098FEF9FE7A6E181509040A040BE
:10316000E1F700C000000E942C078FEF9FE7A6E167
:1031700081509040A040E1F700C0000080E090E066
:103180000E946F098FEF9FE7A6E181509040A04019
:10319000E1F700C0000082E090E060E070E00E9493
:1031A000FA098FEF9FE7A6E181509040A040E1F738
:1031B00000C000000E942C078FEF9FE7A6E181501E
:1031C0009040A040E1F700C0000080E090E00E9445
:1031D0006F098FEF9FE7A6E181509040A040E1F793
:1031E00000C0000081E090E060E070E00E94FA0919
:1031F0008FEF9FE7A6E181509040A040E1F700C02B
:1032000000000E942C078FEF9FE7A6E181509040BD
:10321000A040E1F700C0000080E090E00E946F094C
:103220008FEF9FE7A6E181509040A040E1F700C0FA
:10323000000080E090E00E948D0C0C94260D82E04E
:1032400090E061E070E00E94C6098FEF9FE7A6E181
:1032500081509040A040E1F700C000000E94530759
:103260008FEF9FE7A6E181509040A040E1F700C0BA
:10327000000080E090E00E946F098FEF9FE7A6E1D9
:1032800081509040A040E1F700C0000084E090E051
:1032900060E070E00E94FA098FEF9FE7A6E181509D
:1032A0009040A040E1F700C000000E942C078FEF83
:1032B0009FE7A6E181509040A040E1F700C00000E8
:1032C00080E090E00E946F098FEF9FE7A6E18150B8
:1032D0009040A040E1F700C0000082E090E060E094
:1032E00070E00E94C6098FEF9FE7A6E181509040F1
:1032F000A040E1F700C000000E9453078FEF9FE756
:10330000A6E181509040A040E1F700C0000081E0BC
:103310000E94B3058FEF9FE7A6E181509040A04047
:10332000E1F700C000000E9453078FEF9FE7A6E17E
:1033300081509040A040E1F700C0000080E090E0A4
:103340000E946F098FEF9FE7A6E181509040A04057
:10335000E1F700C0000084EB90E00E94260580E0C9
:1033600090E00E946F098FEF9FE7A6E181509040A7
:10337000A040E1F700C000008AE590E00E94170538
:103380008FEF9FE7A6E181509040A040E1F700C099
:10339000000081E00E94B3058FEF9FE7A6E1815016
:1033A0009040A040E1F700C00000D8018D919C91B1
:1033B0001197019611969C938E930E94AC058FEF06
:1033C0009FE7A6E181509040A040E1F700C00000D7
:1033D0000C94260D0E94CF028FEF9FEFACE281503C
:1033E0009040A040E1F700C000000E94D302888115
:1033F0009981AF2DA81B8A2F0E94B30581E090E030
:103400000E948D0C198218820C94260DDF91CF91A9
:103410001F910F91FF90DF90CF900895AF92BF92D0
:10342000CF92DF92EF92FF920F931F93CF93DF9390
:10343000C2E0D2E08E01025010400F2EF8E0EF2ED5
:10344000F2E0FF2EF02DCC24DD246894C1F80F2E7D
:10345000F0E0AF2EF2E0BF2EF02D83E00E942403B7
:103460008093500282E00E94240380934F0281E007
:103470000E94240380934E0280915102823009F011
:1034800031C180910402909105028530910508F0C8
:1034900026C10E947A07882309F41DC181500E9429
:1034A000970681E090E00E946F09888199810196DA
:1034B000F801408151819C01220F331F220F331FDD
:1034C000820F931F840F951F880F991F8E0D9F1DCC
:1034D000FC018081918181309105E9F50E942C07E2
:1034E00081E090E00E946F09888199810196F8013E
:1034F000408151819C01220F331F220F331F820F05
:10350000931F840F951F880F991F8E0D9F1DFC011F
:10351000D182C082888199818430910571F481E0E3
:1035200090E060E070E00E94C6090E94530781E0CD
:103530000E94B3050E94EC0C90CFF501808191812F
:10354000019760E070E00E94C6090E94530782E084
:103550000E94B30582CF888199819C012F5F3F4FE4
:10356000F80180819181AC0141505040C901880F20
:10357000991F880F991F820F931F840F951F880F23
:10358000991F8E0D9F1DFC018081918181309105D5
:1035900009F045C0888199818430910581F40E94A9
:1035A0002C0781E00E94B3050E942C0781E090E087
:1035B0000E946F090E9453070E94EC0C4ECF0E949C
:1035C0002C0781E090E060E070E00E94C6090E9454
:1035D000530781E090E00E946F09888199810196EC
:1035E000F801408151819C01220F331F220F331FAC
:1035F000820F931F840F951F880F991F8E0D9F1D9B
:10360000FC01D182C08281E090E060E070E00E9425
:10361000C6090E94530782E00E94B3051ECF88812D
:1036200099819C012F5F3F4FF80180819181AC010E
:103630004F5F5F4FC901880F991F880F991F820F35
:10364000931F840F951F880F991F8E0D9F1DFC01DE
:10365000808191818130910509F0FFCE0E942C0775
:1036600081E00E94B3050E94530781E090E00E9430
:103670006F0928813981F80180819181AC014F5F08
:103680005F4FC901880F991F880F991F820F931FE1
:10369000840F951F880F991F8E0D9F1DFC01D182ED
:1036A000C0828AE590E00E94260588819981853054
:1036B000910519F40E94EC0CD0CEF5018081918126
:1036C000019761E070E00E94C6090E94530781E003
:1036D0000E94B305C2CE81E00E94B305BECE0E9417
:1036E000EC0CBBCEDF91CF911F910F91FF90EF902B
:1036F000DF90CF90BF90AF9008950E94E5030E94A5
:10370000F4030E94FE030E940A040E94110D0E940D
:10371000F50A5058BB27AA270ED04DC13ED130F034
:1037200043D120F031F49F3F11F41EF433C10EF465
:10373000E095E7FB29C1E92F4FD180F3BA17620763
:1037400073078407950718F071F49EF567C10EF4AE
:10375000E0950B2EBA2FA02D0B01B90190010C01A1
:10376000CA01A0011124FF27591B99F0593F50F4B9
:10377000503E68F11A16F040A22F232F342F442711
:10378000585FF3CF469537952795A795F040539509
:10379000C9F77EF41F16BA0B620B730B840BBAF0D9
:1037A0009150A1F0FF0FBB1F661F771F881FC2F744
:1037B0000EC0BA0F621F731F841F48F48795779558
:1037C0006795B795F7959E3F08F0B3CF9395880F0F
:1037D00008F09927EE0F9795879508950CD0EBC0C8
:1037E000E3D040F0DAD030F021F45F3F19F0CCC0E4
:1037F000511115C1CFC0F0D098F39923C9F35523C7
:10380000B1F3951B550BBB27AA27621773078407D3
:1038100038F09F5F5F4F220F331F441FAA1FA9F389
:1038200033D00E2E3AF0E0E830D091505040E6957B
:10383000001CCAF729D0FE2F27D0660F771F881FDC
:10384000BB1F261737074807AB07B0E809F0BB0BCB
:10385000802DBF01FF2793585F4F2AF09E3F5105EF
:1038600068F092C0DCC05F3FECF3983EDCF38695D5
:1038700077956795B795F7959F5FC9F7880F911D65
:103880009695879597F90895E1E0660F771F881F51
:10389000BB1F621773078407BA0720F0621B730B04
:1038A000840BBA0BEE1F88F7E095089504D0689456
:1038B000B111B5C0089598D088F09F5790F0B92FF6
:1038C0009927B751A0F0D1F0660F771F881F991F75
:1038D0001AF0BA95C9F712C0B13081F09FD0B1E0AB
:1038E00008959CC0672F782F8827B85F39F0B93FBB
:1038F000CCF3869577956795B395D9F73EF4909577
:103900008095709561957F4F8F4F9F4F0895E894F4
:1039100009C097FB3EF490958095709561957F4F17
:103920008F4F9F4F9923A9F0F92F96E9BB279395C5
:10393000F695879577956795B795F111F8CFFAF4D5
:10394000BB0F11F460FF1BC06F5F7F4F8F4F9F4F06
:1039500016C0882311F096E911C0772321F09EE864
:10396000872F762F05C0662371F096E8862F70E0CA
:1039700060E02AF09A95660F771F881FDAF7880FA4
:103980009695879597F9089597F99F6780E870E075
:1039900060E008959FEF80EC089500240A941616C5
:1039A000170618060906089500240A94121613062D
:1039B000140605060895092E0394000C11F48823BB
:1039C00052F0BB0F40F4BF2B11F460FF04C06F5FD7
:1039D0007F4F8F4F9F4F089557FD9058440F551FAD
:1039E00059F05F3F71F04795880F97FB991F61F081
:1039F0009F3F79F087950895121613061406551FF8
:103A0000F2CF4695F1DF08C0161617061806991F63
:103A1000F1CF86957105610508940895E894BB2758
:103A200066277727CB0197F908950BD0C4CFB5DF70
:103A300028F0BADF18F0952309F0A6CFABCF1124F8
:103A4000EECFCADFA0F3959FD1F3950F50E0551F3D
:103A5000629FF001729FBB27F00DB11D639FAA27E3
:103A6000F00DB11DAA1F649F6627B00DA11D661F32
:103A7000829F2227B00DA11D621F739FB00DA11D53
:103A8000621F839FA00D611D221F749F3327A00D0D
:103A9000611D231F849F600D211D822F762F6A2FA9
:103AA00011249F5750408AF0E1F088234AF0EE0F2E
:103AB000FF1FBB1F661F771F881F91505040A9F73B
:103AC0009E3F510570F060CFAACF5F3FECF3983E68
:103AD000DCF3869577956795B795F795E7959F5FA2
:103AE000C1F7FE2B880F911D9695879597F908953C
:103AF000FA01EE0FFF1F30962105310599F161158E
:103B0000710561F48038BFE39B0749F168949038F0
:103B1000810561F08038BFEF9B0741F0992342F5A2
:103B2000FF3FE1053105210511F1E8940894E7957F
:103B3000D901AA2329F4AB2FBE2FF85FD0F310C010
:103B4000FF5F70F4A695E0F7F73950F019F0FF3AEF
:103B500038F49F779F930CD00F9007FC90580895EE
:103B60003EF018CF60E070E080E89FE308954FE7F3
:103B70009F775F934F933F932F939ED02F913F91C9
:103B80004F915F9152DF05C019F40EF0FDCE46CF84
:103B900001CF2ADFC8F39638C0F707F80F92E894F0
:103BA0002BE33AEA48EB5FE74EDF0F920F920F925A
:103BB0004DB75EB70F92C0D0E4EEF0E016D04F9153
:103BC0005F91EF91FF91E595EE1FFF1F49F0FE57C2
:103BD000E0684427EE0F441FFA95E1F74195550B35
:103BE00032D00F9007FE26C00895DF93CF931F9326
:103BF0000F93FF92EF92DF927B018C01689405C0D6
:103C0000DA2EEF011EDFFE01E894A5912591359192
:103C100045915591AEF3EF018EDDFE019701A801AC
:103C2000DA9479F7DF90EF90FF900F911F91CF9189
:103C3000DF9108959B01AC0160E070E080E89FE3B4
:103C4000CDCDA2CEACC0D0DEE8F39923D9F3940F4A
:103C5000511DBBF39150504094F059F0882332F03D
:103C6000660F771F881F91505040C1F79E3F510546
:103C700044F7880F911D9695879597F908955F3FB2
:103C8000ACF0983E9CF0BB27869577956795B795E5
:103C900008F4B1609395C1F7BB0F58F711F460FFBA
:103CA000E8CF6F5F7F4F8F4F9F4FE3CFB8CE0EF0BF
:103CB00076C070CE689468CE97DEC8F39923D1F3AE
:103CC000C6F3DF93CF931F930F93FF92C92FDD2786
:103CD00088232AF02197660F771F881FDAF720E0E4
:103CE00030E040E85FEB9FE3883920F0803E30F021
:103CF00021968F770FDDECE0F1E003C00BDDE9E307
:103D0000F1E073DF8B01BE01EC01FB2E6F577109EF
:103D10007595771F880B990BFCDD28E132E741E3AD
:103D20005FE38FDEAF2D9801AE01FF900F911F91E1
:103D3000CF91DF9100DD3FCEFA01DC01AA0FBB1F5E
:103D40009B01AC01BF5728F4222733274427507822
:103D50001FC0B75188F4AB2F00244695379527959F
:103D6000011CA395D2F3002069F0220F331F441FDA
:103D7000B395DAF30DD0CDCC61307105A0E88A0798
:103D8000B94630F49B01AC016627772788279078E5
:103D9000309621F0208331834283538308959F3FDF
:103DA00031F0915020F4879577956795B795880FF6
:103DB000911D9695879597F90895AA1BBB1B51E114
:103DC00007C0AA1FBB1FA617B70710F0A61BB70B8B
:103DD000881F991F5A95A9F780959095BC01CD0130
:063DE0000895F894FFCFE6
:043DE60002000000D7
:00000001FF
